:100000000C949F020C94D7020C94D7020C94D70244
:100010000C94D7020C94D7020C94D7020C94D702FC
:100020000C94D7020C94D7020C9485260C94592773
:100030000C94A2210C94D7020C94D7020C94D702F2
:100040000C94D7020C94D7020C94D7020C94D702CC
:100050000C94D7020C9429220C94D7020C94D7024A
:100060000C94D7020C94D7020C94D7020C94D702AC
:100070000C94D7020C94D7020C94D7020C94D7029C
:100080000C94D7020C94D7020C94D7020C94D7028C
:100090000C94D7020C94D7020C94D7020C94D7027C
:1000A0000C94D7020C94D7020C94D70229001E009E
:1000B0001F0020002100220023002400250026002C
:1000C00027002D002E0031002A0035002B001400DF
:1000D0001A000800150017001C0018000C00120080
:1000E00013002F0030002A0000000000E000040090
:1000F0001600070009000A000B000D000E000F009B
:10010000330034002002280000000000E10032002B
:100110001D001B000600190005001100100036002C
:1001200037003800E500E500E5002152E000E3007B
:10013000E300E200E2002C00000000002C002C0094
:10014000E600E600E600E400E4004F00A5003A0007
:100150003B003C003D003E003F00400041004200AB
:10016000430044004500490001004C00390020785C
:1001700001000100010001000100010046004700EC
:100180004800520001002A00000000000100A90000
:10019000AA00A800B0000100550054004A004B001E
:1001A00050004F0035020100000000000100010076
:1001B00001000100010001000100570056004D0040
:1001C0004E0051000100010001000100010001008A
:1001D0000100010001000100000000000100010019
:1001E0000100010001000100010001001E0F0500D7
:1001F000047F3F1F643214643214783C1E1E140ABC
:10020000052223252628292A2C2D2F303233353656
:10021000383A3B3D3E4042434547494A4C4E505197
:10022000535557595A5C5E6062646668696B6D6FBE
:1002300071737577797B7D7F81838587898A8C8EC1
:1002400090929496989A9C9E9FA1A3A5A7A8AAACC9
:10025000AEAFB1B3B4B6B8B9BBBCBEBFC1C2C3C503
:10026000C6C7C9CACBCCCDCED0D1D2D2D3D4D5D6A5
:10027000D7D7D8D9D9DADADBDBDBDCDCDCDCDCDDD8
:10028000DDDDDDDCDCDCDCDCDBDBDBDADAD9D9D8BC
:10029000D7D7D6D5D4D3D2D2D1D0CECDCCCBCAC954
:1002A000C7C6C5C3C2C1BFBEBCBBB9B8B6B4B3B183
:1002B000AFAEACAAA8A7A5A3A19F9E9C9A9896941E
:1002C00092908E8C8A89878583817F7D7B797775F3
:1002D00073716F6D6B6968666462605E5C5A5957D2
:1002E000555351504E4C4A4947454342403E3D3B91
:1002F0003A3836353332302F2D2C2A29282625231B
:1003000022FFAA7F55400001010101010101010105
:1003100002020202020202020203030303030303B6
:100320000304040404040404050505050506060683
:100330000606070707070708080808090909090A40
:100340000A0A0B0B0B0C0C0C0D0D0D0E0E0E0F0FE5
:100350000F10101111111212131314141515161673
:100360001717181819191A1A1B1B1C1D1D1E1E1FE2
:100370002020212222232424252626272829292A31
:100380002B2C2D2D2E2F3031323233343536373859
:10039000393A3B3C3D3E3F40414243444546474855
:1003A000494A4C4D4E4F50515354555658595A5B2B
:1003B0005D5E5F616264656668696B6C6D6F7072CB
:1003C000737577787A7B7D7E8082838587888A8C37
:1003D0008E8F91939596989A9C9EA0A2A3A5A7A96B
:1003E000ABADAFB1B3B5B7BABCBEC0C2C4C6C9CB62
:1003F000CDCFD1D4D6D8DBDDDFE2E4E7E9EBEEF018
:10040000F3F5F8FAFDFF140347004800360030000A
:100410002000760031002E0033000000100355004C
:100420006E006B006E006F0077006E00000004032A
:10043000090409023B00020100A0FA0904000001BE
:100440000301010009211101000122440007058177
:100450000308000109040100010300000009211143
:10046000010001227B000705820320000112010028
:100470000200000008EDFE0000010001020001057D
:10048000010902A10185020901A10005091901293B
:10049000081500250195087501810205010930093B
:1004A000311581257F95027508810609381581254A
:1004B0007F950175088106050C0A38021581257F94
:1004C000950175088106C0C005010980A101850359
:1004D00019012AB700150126B70095017510810092
:1004E000C0050C0901A101850419012AA00215010A
:1004F00026A002950175108100C005010906A10121
:10050000050719E029E71500250195087501810205
:100510009501750881010507190029FF150026FFBF
:1005200000950675088100050819012905150025A3
:1005300001950575019102950175039101C0112482
:100540001FBECFEFDAE0DEBFCDBF04B603FE18C09A
:1005500080912F0390913003A0913103B091320329
:100560008730904BA740B04B59F410922F03109254
:1005700030031092310310923203E0E0F8E3099562
:1005800011E0A0E0B1E0E8ECF6E502C005900D92C4
:10059000AC3DB107D9F723E0ACEDB1E001C01D924D
:1005A000AF32B207E1F70E943B120C940E2B0C9471
:1005B00000008230C8F46530B8F44031A8F4E62F6A
:1005C000F0E095E0899FE00DF11D112484E0EE0F2D
:1005D000FF1F8A95E1F7E40FF11DEE0FFF1FE455B1
:1005E000FF4F85919491089581E090E008950E94D5
:1005F000D902089581E008950E94FA02089581E0E9
:1006000008950E94FA0208950E9401030895089532
:100610000E9407030895A6E0B0E0E1E1F3E00C9446
:10062000BA2949835A839E833091E30189819A8153
:1006300031111AC03E81332399F0222389F00E94A0
:10064000AF08182F682F89819A810E948C086981D0
:100650007A81812F0E94A00F2696E3E00C94D62980
:100660000E949D08182FF3CF0E94AF0869817A81FC
:10067000F1CFFC01262F40815181628173818481F9
:1006800095810E940B030895CF93DF93EC0161E005
:100690000E943903BE010E94FC02DF91CF910895B0
:1006A000CF93DF93EC0160E00E943903BE010E940A
:1006B0000803DF91CF91089508950E9461070E9479
:1006C0005C032FEF84E39CE0215080409040E1F7F1
:1006D00000C0000008950E945D030E944D2208950D
:1006E0000E945D030E94712208950F931F93CF9380
:1006F000DF938C0161E00E943903EC01B8010E9494
:100700000403811106C080E0DF91CF911F910F910A
:100710000895B801CE010E94A81D8823A1F3B80155
:10072000CE010E942120882371F3B801CE010E94DE
:10073000B71E882341F3B801CE010E94931F88237E
:1007400011F3B801CE010E944E1C8823E1F2F8019A
:100750008581882361F0C330FCE7DF07E9F058F4B6
:10076000C115ECE7DE07A9F0C130DC47B9F0C801DC
:100770000E94FF02C9CFCB358CE7D807A9F0CC3552
:10078000ECE7DE0771F0CA35DC4789F70E94E50C1B
:10079000EECF0E946B03B7CF0E94ED0C0E94700356
:1007A000B2CF0E94DB0CE3CF0E94E90CE0CF0E94A5
:1007B0007E2180E00E94871D0E9407040E949C1AEF
:1007C00008950E94D41C0E940B040E948B1B0E945F
:1007D00083210895089581E008950895CF93DF93CC
:1007E000D82F0E94EB03C82F882319F08D2F0E9469
:1007F000ED038C2FDF91CF9108950895CF93C82FEB
:100800000E94EA038C2F0E94EE03CF91089580E0AE
:100810000E94FE0308950E946A200E94FE0308952C
:10082000CF930E946A20C82F8091DE018C1779F047
:10083000C093DE010E940E226093DF017093E001FD
:100840008093E1019093E2018C2F0E94FE03CF91EF
:100850000895ADE0B0E0EFE2F4E00C94BB294887E6
:1008600059876A877B878C879D8791110E94130C1B
:100870001F8286E0FE013896DE01119601900D92EE
:100880008A95E1F78D8181110DC029813A814B81D3
:100890005C816D817E818F810E94460B2D96E2E006
:1008A0000C94D729CE0101960E9444038111EDCF0B
:1008B000F5CFFC012481213021F4808191810E94B7
:1008C000E1080895662329F00E94D2120E94A51320
:1008D00008950E942C13FACFCF93C82F8823B9F024
:1008E0008CEF8C0F813AA8F46C2F809104019091C9
:1008F00005010E94EC20882329F08C2F0E94D30B45
:100900000E944C0C8C2F0E94CB0B0E944C0CCF9160
:10091000089580E28C0F883048F4C77081E001C0F0
:10092000880FCA95EAF70E94F60BEFCFEBE5EC0FC4
:10093000E33040F4F0E0E05AFE4F808190E00E9406
:100940009020E5CFE8E5EC0FEB3150F4F0E0EE0F4E
:10095000FF1FE65DFE4F808191810E94B520D7CFB9
:1009600083E38C0F833198F661E08C2F0E94620440
:10097000CECF882381F19CEF980F913A28F40E9402
:10098000D30B0E944C0C089590E2980F983050F4CD
:10099000877091E001C0990F8A95EAF7892F0E942C
:1009A000FC0BEFCF9BE5980F933028F490E080E0AC
:1009B0000E949020089598E5980F9B3128F490E0CC
:1009C00080E00E94B520089593E3980F933118F4C6
:1009D00060E00E94620408951F93CF93DF93182F65
:1009E000EB010E946C04209739F4812F0E94B90416
:1009F000DF91CF911F9108958FE99FE00197F1F763
:100A000000C000002197EFCF70E060E0893311F45F
:100A100060E570E00E94EC040895882321F00E94B4
:100A2000F60B0E944C0C0895882321F00E94FC0BC9
:100A30000E944C0C0895B0E0A0E0E1E2F5E00C94D7
:100A4000B4296C01D62FC72FFC01158106810295B0
:100A50000F700E94EC0BE82E8823E9F0E12E1123A1
:100A6000D1F08C2F807F803451F080E28D0F883060
:100A7000F8F0011104C08C2F807E8032C9F0809183
:100A8000E20282FF15C082E00E94AF0C0E94EC0BD4
:100A900091E0E82EE926BC2EB2949FE0B922FBE05B
:100AA000FB15B8F1EB2DF0E0E05FF44D0C947429E8
:100AB000E12CF1CF0C2F0F70C07F11F00295007F59
:100AC000112399F0002359F080E28D0F883010F047
:100AD000D11107C0802F0E94F60B0E944C0C8D2F65
:100AE0005AC0802F0E94060CF8CF8D2F0E94B904A7
:100AF000002379F080E28D0F883010F0D11104C00E
:100B0000802F0E94FC0B03C0802F0E940C0C0E94BF
:100B10004C0CEB2DE850FF0B349720F40E946A2018
:100B20000E94FE03EE2089F00E94E80B80FD0DC0BC
:100B3000F60115820E94E20B0E94EA07C6010E949C
:100B400028070E94E20B0E94FA07CDB7DEB7E9E062
:100B50000C94D0292C2F2F70F22EC07FC03219F0A8
:100B6000F29480EFF822DD2341F0D130D1F111234E
:100B700009F444C00023F1F0B2CF8091E20282FD7B
:100B800015C0112359F0FF2029F08F2D0E94F60B7C
:100B90000E944C0C80E00E946C04BBCF80E00E945D
:100BA000B904FF2009F4B5CF8F2DABCF112369F025
:100BB000011104C08F2D0E940D05ABCF013009F04B
:100BC000A8CF8F2D0E942A0CA4CF0111A2CF8F2D68
:100BD0000E9414058F2D0E94360C8F2D0E941A0C36
:100BE00098CF112321F0063008F093CFE3CF0530E2
:100BF00008F08FCF8F2D0E9414058BCF0023D1F3E7
:100C0000D93349F43FEF87EE93E031508040904074
:100C1000E1F700C000008D2F0E94B9047ACF8C2F1D
:100C200086958695837069F0813009F072CF8D2F9B
:100C30009C2F9370111102C080E090E00E94B520BB
:100C400068CF8D2F9C2F9370111102C080E090E02F
:100C50000E9490205ECF612F8D2F0E94620459CF99
:100C60008C2F8370A1F5111154CF4D2F42954695CD
:100C70004770440F440F2D2F2F7030E0042E02C018
:100C8000220F331F0A94E2F790E080E0D4FF09C0FE
:100C90008FE090E002C0880F991F4A95E2F7809597
:100CA0009095C695C695C370822B932BC23049F0A0
:100CB00058F4C13019F00E94BA072BCF0E94B10737
:100CC00028CF0E94C30725CF0E94AE0722CF86956A
:100CD000112311F08C2F8170882309F41ACF4D2F26
:100CE000429546954770440F440F2D2F2F7030E0EA
:100CF000042E02C0220F331F0A94E2F790E080E036
:100D0000D4FF09C08FE090E002C0880F991F4A9578
:100D1000E2F780959095C695C695C370822B932B6C
:100D2000C23049F058F4C13019F00E942508F1CEC4
:100D30000E941C08EECE0E942E08EBCE0E94D20725
:100D4000E8CECF70112329F08C2F0E94EA078D2F57
:100D500032CF8D2F0E9414058C2F0E94FA07D9CE16
:100D6000D23F41F160F4D03FB9F0D13F81F011237F
:100D700009F446C00111B3CE8C2F8F711FC0D33F31
:100D800001F1D43FA1F78091E20282FD24C08C2FB3
:100D90008F71112311F312C0112341F0053008F0B7
:100DA000B8CE8C2F8F710E940C08B3CE063008F09D
:100DB000B0CEF7CF8C2F8F711111CFCF0E94EA07E1
:100DC000A8CE112329F08C2F8F710E94DE07A1CEAF
:100DD0000E94D9079ECE112349F0CF718C2F0E941B
:100DE000EA0763E08C2F0E94910C93CE81E00E9471
:100DF000AF0C023008F48DCE82E00E94AF0C89CE99
:100E0000002359F0D93309F006CFEFEFF7EE23E0D6
:100E1000E150F0402040E1F7FCCE8C2F8F719DCF48
:100E20000F931F93CF93DF93EC01688179818D81BC
:100E30000E94EC088C010E9437080E94AD07B8019F
:100E4000CE010E941B05DF91CF911F910F91089554
:100E5000CF93DF93EC018C81882399F0CE010E941F
:100E60007503811111C00E94EC0B882351F08D8114
:100E7000882339F08091E20282FF03C082E00E9461
:100E8000AF0CDF91CF910895CE010E941007CE01E3
:100E90000E945003F6CF90E080E00E94902090E006
:100EA00080E00E94B5200E94130C0E944C0C0E940E
:100EB000C1130E94A51308950E94DB0B0E944B07EB
:100EC00008950E94030C0E945C07089592959F70FC
:100ED000963091F058F4925F9F70923058F4803FB2
:100EE00019F030F4883E30F481E008959A5FF4CF31
:100EF000843FD1F380E00895883EB0F3813FD1F77D
:100F0000F3CFFC012481222339F0808191810E945A
:100F1000E1080E946607089580E00895A6E0B0E029
:100F2000E4E9F7E00C94BB292696E2E00C94D7297B
:100F3000A7E0B0E0EEE9F7E00C94BB292796E2E0E9
:100F40000C94D72908950E94A20708950E94A30730
:100F500090930F0280930E02089508950E94A607B1
:100F6000089520910E0230910F02822B932B0E9444
:100F7000A607089520910E0230910F028223932339
:100F80000E94A607089520910E0230910F02822739
:100F900093270E94A60708950E94A20708950E9421
:100FA000CC0708950E94CF0790930D0280930C0206
:100FB000089590E080E00E94D207089521E030E09B
:100FC000A90102C0440F551F8A95E2F7CA010E9489
:100FD000D207089521E030E002C0220F331F8A9526
:100FE000E2F780910C0290910D02822B932B0E94CC
:100FF000D207089521E030E002C0220F331F8A9506
:10100000E2F72095309580910C0290910D02822399
:1010100093230E94D207089521E030E002C0220FFE
:10102000331F8A95E2F780910C0290910D0282277E
:1010300093270E94D207089520910C0230910D024F
:10104000822B932B0E94D207089520910C0230919D
:101050000D02822393230E94D207089520910C024F
:1010600030910D02822793270E94D2070895089598
:10107000262F277091E001C0990F2A95EAF723E007
:10108000769567952A95E1F7660F771F660F771FAC
:10109000FA01E60FF71F50E040E0682F70E0819101
:1010A000DF0111979B01042E02C0369527950A9403
:1010B000E2F7217021952827292328272C934F5FB9
:1010C0005F4F4430510559F70895A82FA77023E0CA
:1010D000969587952A95E1F7880F991F880F991F94
:1010E000FB01E80FF91F50E040E080E0219130E083
:1010F0000A2E02C0369527950A94E2F7217033270D
:10110000042E01C0220F0A94EAF7822B4F5F5F4F33
:101110004430510559F70895262F953068F48031F1
:1011200058F430E1939FB0011124680F711D44EE13
:1011300051E0822F0E9438080895953070F4803174
:1011400060F440E1949F9001112464EE71E0820FFD
:10115000932F911D0E946508089580E00895B0E0E6
:10116000A0E0E5EBF8E00C94B4297C0100910C02BE
:1011700010910D0280910E0290910F02082B192BF5
:10118000CFE0D0E0CC24C394D12CBC2EC6010C2ED1
:1011900002C0880F991F0A94E2F780239123892BBC
:1011A00049F4219790F7B12C8B2DCDB7DEB7E9E04C
:1011B0000C94D029B7018C2F0E94AC0F019789F3B2
:1011C000F3CFCF93DF93EC010E94AF08BE010E94E2
:1011D000AC0FDF91CF9108951F93CF93DF93EB0175
:1011E0009091E301992339F0CB010E94E108DF914E
:1011F000CF911F910895882369F0CB010E94AF0819
:10120000182F682FCE010E948C08BE01812F0E94EA
:10121000AC0FEDCFCB010E949D08182FF6CF1F9386
:10122000CF93DF93C091100217E0809111028C13CD
:1012300004C0DF91CF911F910895D0E01C9FF00171
:101240001D9FF00D1124EE5EFD4F20813181428102
:1012500053816481758186810E9498072196C770A9
:10126000E4CF20914A0230914B0240914C025091C0
:101270004D0260914E0270914F02809150020E9487
:1012800098070895CF93DF9380915002807F09F0F3
:101290004DC080914F02882309F448C0E0911002AC
:1012A00050911102C0914B02D0914A0260914C02C0
:1012B00070914D0247E05E17C9F18E2F90E0E49FD8
:1012C000F0011124EE5EFD4F2481222391F1489F0D
:1012D000F001499FF00D1124DF01AE5EBD4F119664
:1012E0002C9111972C1325C02C912D1322C01596EB
:1012F0002C91159721111DC012962D913C91261B02
:10130000370B283C3105A8F4809150028F70806122
:1013100080935002E85EFD4F80818F7080618083F2
:101320008AE492E00E9428070E940F09DF91CF9182
:101330000895FC013196E770BECF482F209110022E
:101340009091110257E0291302C080E0089530E027
:10135000529FF001539FF00D1124EE5EFD4F8181ED
:10136000681306C08081481303C085818111EECFC8
:101370002F5F3F4F2770E7CFA4E1B0E0E2ECF9E048
:101380000C94B1298C0186E0F801DE011F960190D2
:101390000D928A95E1F7F8018481E5809AE4A92EFF
:1013A00092E0B92E90914E0291111FC08823D1F086
:1013B000EE20A9F0C8010E948107F82E882379F059
:1013C00087E0F801D50101900D928A95E1F7C501FA
:1013D0000E9459040E9442090E9431095FC0C8015D
:1013E0000E942807FF24F39459C0C080D1808280D6
:1013F0009380F0904F0220914C0230914D02A40155
:10140000421B530BFF2009F4F9C0483C510508F07A
:10141000A7C0882309F442C090914B0280915002EA
:10142000282F207F09F05CC09D1116C090914A02C0
:10143000C91212C0E1104EC08F70806180935002BB
:101440000E9431098AE492E00E94280780915002AC
:10145000F8018683F12C22C0E1103CC06D2D8C2D4B
:101460000E949D096D2D8C2D0E949D09E82E8111F1
:10147000F1CFCF86D88A8F8598890E94E108292FDD
:1014800022952F70243078F49F702230A8F0992391
:10149000B9F0F8019681907F99F4FE2C8F2D649617
:1014A000ECE00C94CD292A5F2F70223068F0C8013F
:1014B0000E942807EF2CF1CF992311F0882369F3BC
:1014C000805E883050F3F3CF803F38F3815F833004
:1014D00070F7E3CF80915002816080935002BACFC1
:1014E0009D1113C090914A02C9120FC0E1100DC0A6
:1014F0008683C8010E94280787E0F801AAE4B2E0C9
:1015000001900D928A95E1F767CFC8010E9481078B
:10151000882309F464CFEE2009F461CF8091500252
:10152000803288F020914A0230914B023987288717
:101530009B868A8690914E029C871D868E87CE015F
:1015400008960E94280787E0F801AAE4B2E001901B
:101550000D928A95E1F70E9442090E94310942CF1B
:1015600090915002292F207FA1F4682D9A8A898AB0
:10157000A6017A899E2D0E948E078AE492E00E943D
:10158000280787E0F50111928A95E9F70E94310951
:1015900061CF882309F482CF80914B028D1110C056
:1015A00080914A02C8120CC0E1100AC09683C8019B
:1015B0000E94280787E0F50111928A95E9F76ECF1E
:1015C000C8010E948107882309F409CFEE2009F49D
:1015D00006CF80915002803208F4B5CF20914A02A4
:1015E00030914B023A8329839C828B8290914E02E8
:1015F0009D831E828F83CE010196A3CF483C510567
:10160000B8F5882309F4EECEFE2CEE2009F4E7CEDF
:1016100080914B028D111EC080914A02C8121AC0DF
:101620008091500280FD0DC0982F907F51F08683ED
:10163000903F09F45ECF982F907F905F8F70892B39
:1016400057CF87E0F801AAE4B2E001900D928A95A5
:10165000E1F724CFC8010E948107811174CF8091E6
:101660005002816080935002C8010E94280716CF63
:10167000682D9A8A898AA6017A899E2D0E948E07F2
:1016800087E0F50111928A95E9F7A6CEAEE0B0E0C9
:10169000ECE4FBE00C94BA29288739874A875B87FA
:1016A0006C877D878E87CE0108960E94BC098823AF
:1016B000B1F06C85662341F0288539854A855B85C4
:1016C0007D858E850E94980717E080911002909189
:1016D000110289133DC02E96E3E00C94D62987E0D1
:1016E000FE013896DE01119601900D928A95E1F780
:1016F0008C85882349F32091110230E0C9010196BD
:1017000087709927409110024817190699F097E0C1
:10171000929FD001939FB00D1124AE5EBD4FFE018C
:10172000319601900D929A95E1F7809311020E94F3
:101730000F09CACF0E946107109211021092100285
:1017400087E0EAE4F2E0DF011D928A95E9F7BCCF79
:10175000819FC00111248E5E9D4F0E94BC09882389
:1017600009F4B9CFE09110021E9FF0011124EE5E42
:10177000FD4F208131814281538164817581868151
:101780000E9498078091100290E001968770992737
:10179000809310029ACF682F8091040190910501E7
:1017A0000E9422210895682F8091040190910501E3
:1017B0000E942521089580910401909105010E94C5
:1017C00028210895809159028695869586950895D9
:1017D000809159028770089590915902977081E025
:1017E00009F480E008958091650208959091650262
:1017F000892B8093650208958095909165029823C6
:101800009093650208951092650208959091640284
:10181000892B8093640208958095909164029823A7
:1018200090936402089510926402089508950E94AE
:10183000160C089590915A02292F282331F0809593
:10184000892380935A020E94170C089508950E94DC
:10185000260C089590915B02292F2823281729F040
:10186000982B90935B020E94270C089590915B0245
:10187000292F282331F08095892380935B020E94D1
:10188000270C089580915B02882329F010925B0257
:1018900080E00E94270C0895CF93DF93E09104012C
:1018A000F0910501809165028083E0910401F0913F
:1018B0000501808190916402892B808390915B0265
:1018C000992381F0E0910401F09105018081892B39
:1018D000808380910401909105010E94DA2081119A
:1018E0000E94420CC0910401D091050148E050E0F3
:1018F00061E572E0CE010E94812A892B59F088E0CF
:10190000FE01A1E5B2E001900D928A95E1F7CE01CA
:101910000E947720DF91CF91089508950E948D0C49
:1019200008959091E20292FF11C098E0899F900182
:101930001124622B609359020E94EA078091590298
:101940008695869586950E948E0C08950E94EA07DA
:1019500008951092590280E00E948E0C0895909193
:1019600059028095892380935902282F277069F4A2
:10197000891759F09091E20292FF07C086958695EB
:1019800086950E94FA070E94A90C08959091E202A0
:1019900092FB222720F9281769F080FB92F9909397
:1019A000E2028091E1029091E2020E940E0D82E03B
:1019B0000E94AF0C08958091E20282FB882780F993
:1019C00091E089270E94C60C089581E00E94C60C10
:1019D000089580E00E94C60C08956FEF7FEF90E0BD
:1019E00080E00E94D92A089590E080E00E94A52A14
:1019F00021E0863E9E4F09F020E0822F089582E08C
:101A000090E00E94972A089583E090E00E94972A30
:101A1000089584E090E00E94A52A0895BC0184E026
:101A200090E00E94D92A0895AB01BC018FE090E0BC
:101A30000E94CD2A0895AB01BC0183E190E00E9491
:101A4000CD2A089560E070E0CB010E941B0D08953F
:101A500060E070E0CB010E94140D0E94220D0895F9
:101A6000A8E0B0E0E6E3FDE00C94BB2966EE7EEF73
:101A700090E080E00E94D92A60E082E090E00E943D
:101A8000BB2A60E083E090E00E94BB2A10920F0224
:101A900010920E0260E074E184E090E00E94D92A86
:101AA00060E086E090E00E94BB2A6FEF87E090E064
:101AB0000E94BB2A40E050E0BA0188E090E00E941A
:101AC000CD2A60E084E290E00E94BB2A60E087E1DA
:101AD00090E00E94BB2A60E08CE090E00E94BB2A6C
:101AE00060E08DE090E00E94BB2A19821A821B827E
:101AF0001C821D821E821F82188648E050E068E129
:101B000070E0CE0101960E94AB2A40E050E0BA019D
:101B100080E290E00E94CD2A0E94280D2896E2E003
:101B20000C94D7290E94300D0895682F8EE090E024
:101B30000E94BB2A0895A6E0B0E0E1EAFDE00C9423
:101B4000B9290E9402228C0180916602909167025D
:101B50008017910781F019821A820E940222682F51
:101B600049815A81792F80E090E00E9429041093E6
:101B70006702009366022696E4E00C94D5290E9441
:101B80000E2260937602709377028093780290938E
:101B9000790260937202709373028093740290933F
:101BA00075020895089508950E94D20D089508952C
:101BB0000E94D70D089582EA90E10E9448120E9487
:101BC000D30D0E94D40D089581E008950E94E40D84
:101BD00008950E94E40D0895089508950E94EC0D63
:101BE0000E94ED0D08950E94C1100E94FD030E9405
:101BF0007A1E08950E94F9210E949C110E94F30D03
:101C00000E94D41C0E943F1B0E94D80D0895A6E09C
:101C1000B0E0EDE0FEE00C94AF290E94E60D8111EA
:101C20000EC00E949B0D0E94951B0E94791E0E946F
:101C3000E3130E9410042696EEE00C94CB290E9438
:101C4000B21128E6822E22E0922E640110E0F60105
:101C5000E190F1906F01812F0E94E7101F5F153016
:101C600009F44BC0E816F90691F380917A0281FDE0
:101C70000E94F0100E94E90D782E10E06624639413
:101C8000812F0E94E7107C01F401A190B1904F01D7
:101C90008A159B0561F1A826BF2400E0CC24C394DB
:101CA000D12CC5018C219D21892BC1F07720B1F069
:101CB00009831A830E9402229C838B836D8221E018
:101CC000C7018C219D21892B09F420E049815A818B
:101CD0006B817C818D81922F0E9429040F5FCC0C37
:101CE000DD1C0031F1F6F4013297F182E0821F5FD2
:101CF000153031F60E94BF0D96CFE816F90609F0AF
:101D0000B4CF8FCF1F93CF93DF930E94B10FEC011D
:101D1000C11580E5D807F0F5C11580E4D80708F0B3
:101D20009CC0C03ED10520F5CD3CD10508F082C055
:101D3000C83AD10578F4C53AD10508F073C0C1306E
:101D4000D10519F1209709F1C430D105F0F4D0E0A4
:101D5000C0E01BC0C33CD105D0F7C85AD0E0CC0FBF
:101D6000DD1FCD59DE4F0990D881C02DD4640DC040
:101D7000C11580E2D80708F0D1C0C11581E0D807AD
:101D800008F05AC0C83ED10510F7CE01DF91CF91BF
:101D90001F910895C03682E5D80718F5C03482E552
:101DA000D80708F06BC0C03282E5D80708F05FC0E2
:101DB000C11582E5D80708F497C02C2F26952695E3
:101DC00080E2289F900111248C2F8370C1E0D0E025
:101DD00002C0CC0FDD1F8A95E2F7C22BD32BDD6842
:101DE000D4CFC03A82E5D80760F4C03882E5D8077E
:101DF00008F459C0CF71D0E0DC2FCC27C46FD06A73
:101E0000C4CFC03C82E5D80708F462C0C03E82E57A
:101E1000D80708F09CCFDC2FCC27CC27DF71C06F10
:101E2000D06AB3CFC55AD0E0C756DE4FC881D0E0E4
:101E3000D064ABCFD065A9CF8D2F0E945310182F3F
:101E4000CE0199270E94B10FC12FD0E0DC2FCC2703
:101E5000CC27DF71C82BD92B98CFCE0199270E94B0
:101E6000B10FCC27DF70C82BD92BD06A8ECFCF71A2
:101E7000D0E0DC2FCC27C16FD06A87CF2C2F2695DE
:101E80002695277080E2289F900111248C2F837063
:101E9000C1E0D0E002C0CC0FDD1F8A95E2F7C22B73
:101EA000D32BDC6872CF2C2F26952695277080E2E5
:101EB000289F900111248C2F8370C1E0D0E002C0D4
:101EC000CC0FDD1F8A95E2F7C22BD32BDA685DCFEA
:101ED0008C2F8F710E945310C82FD0E0DC2FCC279D
:101EE000CC27DF71D06251CF8C2F8F710E9453109D
:101EF00055E0D695C7955A95E1F7CF70D0E0DC2F25
:101F0000CC27282F30E084FF05C044E0220F331F88
:101F10004A95E1F7C22BD32BD06937CF8D2F8F7124
:101F20000E945310182FCE0199270E94B10FC12F84
:101F3000D0E0DC2FCC27CC27DF71C82BD92BD2CF18
:101F4000462F753030F4603120F4672F0E94F7027D
:101F5000089590E080E008950E94A00F0E94820EF4
:101F6000089582389105B9F1B0F48133910509F4EF
:101F70007DC048F48932910509F46DC08A3291051B
:101F800009F47BC008958533910509F45FC0893356
:101F9000910509F10895833E9105D9F138F4803E09
:101FA000910529F1823E910579F10895863E9105CA
:101FB000D9F1873E910509F43EC0843E910541F573
:101FC0002091E20221FF24C08091E10284FD19C02A
:101FD00087EE90E008952091E102237009F05AC045
:101FE0002091E20223FF14C089E290E0089520913D
:101FF000E10220FD38C03091E20230FF09C024FF29
:1020000043C090E080E008952091E10222FDF7CFE7
:1020100008952091E10222FD3AC03091E20230FDA4
:1020200039C024FFF5CFEDCF2091E10223FFF0CF9F
:1020300024FDE7CFCDCF2091E10223FD2EC03091CA
:10204000E20231FFEECF84EE90E008952091E102AC
:1020500025FFDECFC9CF2091E10225FD21C02091CF
:10206000E20223FFD5CF89E390E0D2CF2091E102B5
:1020700026FFCECF8AE290E008952091E10226FF6C
:10208000C7CF81E390E0089583EE90E0089582EE5B
:1020900090E0089580EE90E0089586EE90E0089537
:1020A00085E390E008959091E10292FF10C041E035
:1020B000282F2471243009F040E031E0282F2871C6
:1020C000283009F030E0431711F02CE0822793FF0D
:1020D00010C041E0282F2471243109F040E031E0A4
:1020E000282F2871283109F030E0431711F02CE037
:1020F00082273091E20230FF10C051E0282F217179
:10210000213009F050E041E0282F2871283009F0F3
:1021100040E0541711F029E0822731FF10C041E060
:10212000282F2171213109F040E031E0282F28715A
:10213000283109F030E0431711F029E0822794FD9F
:10214000877E089580E008950E94ED0C08950E9416
:10215000B2112FEF86E791E0215080409040E1F7E7
:1021600000C000000E94B21180E00E94E71080FFD2
:1021700004C00E94A4100E944D2208950E94A7103E
:1021800008950E94F40C811102C00E94920D0E94D9
:10219000FF0C80937A020E94090D9093E2028093D3
:1021A000E1020E94BE100E94040D90E00E94AE0762
:1021B00080910C0290910D020E94CF07089508951E
:1021C0000E94DF10089508950E94E3100895E82FFB
:1021D000F0E0EE0FFF1FE351FD4F808191810895E4
:1021E000089580EA8A95F1F7089500C008950E9445
:1021F000F1100895F894E82FE295EF70F0E031A126
:10220000282F2F7081E090E001C0880F2A95EAF70F
:10221000982F9095932391A392A1892B82A37894D0
:102220000895CF93DF93CCEAD1E089918F3F11F0ED
:102230000E94FA1081E0C13BD807B9F7CCE9D1E0A0
:1022400089918F3F11F00E94FA1081E0CC3AD807B3
:10225000B9F7DF91CF910895AF92BF92DF92EF92DD
:10226000FF920F931F93CF93DF938C01D62EC62F2F
:10227000D0E0CE0184559E4F7C01FC0120812F3F90
:1022800009F44DC0F894E22FE295EF70F0E031A12F
:102290002F7081E090E001C0880F2A95EAF7932F14
:1022A000982B91A392A18095892382A378940E9470
:1022B000F510ECE9F1E04CEA51E021E030E0B12C1E
:1022C000A12C61916F3FA9F1A62FA295AF70B0E04C
:1022D00090968C9190E06F7002C0959587956A9565
:1022E000E2F780FD26C0C901A82AB92A220F331FB0
:1022F0004E175F0731F7F70180818F3F11F00E9481
:10230000FA1061E0A114B10409F460E08D2D0E947F
:10231000F710CC0FDD1FC00FD11FB982A882DF914B
:10232000CF911F910F91FF90EF90DF90BF90AF90F2
:10233000089590E080E0D8CF0E9411118AE0EDEE80
:10234000F2E0DF01982F1D929A95E9F7E3EEF2E0B3
:10235000DF011D928A95E9F785E00E94ED110E9448
:10236000E0100895AAE0B0E0E8EBF1E10C94B829A0
:102370008E010F5F1F4F8AE0F80111928A95E9F7ED
:10238000F12C6F2DC8010E942C11F394F5E0FF127F
:10239000F8CF4AE050E0B80183EE92E00E94812A33
:1023A00021E0009709F420E0892B41F08AE0F80150
:1023B000A3EEB2E001900D928A95E1F745E06DEE53
:1023C00072E083EE92E00E94EE11182F0E94E4105A
:1023D000812F2A96E5E00C94D4290895CF92DF92BC
:1023E000EF92FF921F93CF93DF936C017B01C42F79
:1023F000222349F081E080937D020E940222909383
:102400007C0280937B0210917D0211110AC010E0C2
:10241000812FDF91CF911F91FF90EF90DF90CF90B0
:10242000089580917B0290917C020E941A22059768
:1024300070F3D0E0CC0FDD1FAE01B601C7010E94E2
:10244000812A892B41F0AE01B601C7010E948E2A74
:1024500010927D02DDCF10E0FBCF0E94D6230E94B8
:10246000FA0D0E94E32308950E94E8230E94070EBC
:102470000E94022408950E949B210E94BC230E9476
:10248000DB0D0E942D120E9434120E94EE0DFBCF34
:102490009093DD018093DC010895282F35EB230311
:1024A000C001112497FF04C080589109892F089515
:1024B00080589F4FFBCF8091840280FF0DC06091B8
:1024C0000B0170E0660F771F6038710570F56115BC
:1024D000710569F1862F089581FF07C060910B0196
:1024E00084E0689FB0011124EFCF60910B0182FD61
:1024F0000AC0809183028823A9F020910A0160918B
:102500000B01821710F088E0ECCF869FC0011124E8
:1025100033E0880F991F3A95E1F7622F70E00E942F
:102520003E29D2CF68E070E0D5CF8FE7089581E0F3
:1025300008958091840280FF0CC06091070170E0D3
:1025400075956795759567956115710549F1862FA4
:10255000089581FF06C06091070170E07595679549
:10256000F3CF6091070182FD0BC090918202992305
:10257000A1F06091060180910701961738F0682F4D
:1025800070E06038710500F38FE70895899FC001FE
:10259000112470E00E943E29F4CF61E070E0D7CFB3
:1025A00081E008958D3C31F40E945B128195809307
:1025B000880208958E3C19F40E945B12F8CF8F3C7C
:1025C00031F40E945B128195809387020895803DCB
:1025D00019F40E945B12F8CF893D29F40E949912E8
:1025E0008093890208958A3D21F40E949912819571
:1025F000F7CF8B3D31F40E949912819580938A0226
:1026000008958C3D19F40E949912F8CF9FE2980F1B
:10261000983070F4815D990B21E030E001C0220F09
:102620008A95EAF780918602822B8093860208952C
:102630008D3D31F4809184028160809384020895FD
:102640008E3D21F4809184028260F7CF8F3DB9F7EF
:10265000809184028460F1CF409187028D3C59F4CF
:102660008091880287FF0DC01092880241110BC033
:102670001092830208C08E3C81F480918802181663
:102680009CF3442381F08091890290918A02892BE6
:1026900009F05AC01092820208958F3C49F447FF16
:1026A000F0CF10928702809188028111ECCFE0CFA9
:1026B000803D19F41416ACF3E4CF90918902893D62
:1026C00029F41916F4F610928902DBCF8A3D19F429
:1026D00097FFD7CFF8CF90918A028B3D29F497FFCF
:1026E000D0CF10928A02CDCF8C3D19F41916CCF3BD
:1026F000C8CF9FE2980F983090F4815D990B21E04C
:1027000030E0B90102C0660F771F8A95E2F7CB016E
:10271000809590918602892380938602B2CF8D3D69
:1027200031F4809184028E7F80938402AACF8E3D03
:1027300021F4809184028D7FF7CF8F3D09F0A1CFE6
:10274000809184028B7FF0CF08950E9402229C0129
:102750009091870280918802982B21F0309381021A
:10276000209380029091890280918A02982B21F017
:1027700030937F0220937E0285E892E00E948220BF
:10278000089586E0E5E8F2E0DF011D928A95E9F719
:102790001092830210928202109284020895FC012A
:1027A000828181110EC0838181110BC084818111CE
:1027B00008C091E08581811101C090E0892F81706E
:1027C000089581E0FCCFA6E0B0E0E9EEF3E10C94DF
:1027D000BA2986E0E5E8F2E0DE01119601900D925B
:1027E0008A95E1F71092870210928802109289026E
:1027F00010928A028B819C81892B89F080918002C2
:10280000909181020E941A22AC0190918302992337
:10281000C9F180910C018417150608F440C08D8120
:102820009E81892B91F080917E0290917F020E947F
:102830001A22AC0190918202992309F46AC0809116
:1028400008018417150608F472C0BE016F5F7F4F40
:1028500085E892E00E942F21811105C085E892E071
:102860000E94CF1381110E94A51386E0FE013196CC
:10287000A5E8B2E001900D928A95E1F72696E3E093
:102880000C94D62920910D018AE0289F90011124F3
:102890002417350720F69F5F9093830202C09F3F65
:1028A000D1F71B81112359F00E945B129FEF111683
:1028B0000CF491E0899F802D1124809387021C8164
:1028C000112359F00E945B129FEF11160CF491E056
:1028D000899F802D1124809388028091870288230C
:1028E00009F49DCF10918802112309F498CF0E941A
:1028F0004D12882351F080938702812F0E944D1240
:10290000882329F0809388028ACF81E0F4CF81E088
:10291000F9CF209109018AE0289F90011124241702
:10292000350708F092CF9F5F9093820202C09F3FCD
:10293000D1F71D81112359F00E9499129FEF1116B2
:102940000CF491E0899F802D1124809389021E81CF
:10295000112359F00E9499129FEF11160CF491E087
:10296000899F802D112480938A0280918902882377
:1029700009F46BCF10918A02112309F466CF0E94EB
:102980004D12882351F080938902812F0E944D12AD
:10299000882329F080938A0258CF81E0F4CF81E028
:1029A000F9CFEF92FF920F931F93CF93DF93EB0139
:1029B000E82FD1110EC0442321F0F0E0EA5FFC4F74
:1029C000E4916E2F7E2F8E2FCDB7DEB7E6E00C940C
:1029D000D3290D2F10E0282F30E0442329F02A5F5F
:1029E0003C4FF901249130E0F6E0CF9FC001112463
:1029F000EFEFF0E0BF010E942A29AB018C2F90E09D
:102A0000880F991FA5E5A49FB001A59F700D112403
:102A1000861B970B982F990F980FBF01601B710BA6
:102A2000629FD001639FB00D729FB00D11248B2F58
:102A30009D9FB0011124672F7727EF01C61BD70B8D
:102A4000BE01629FE001639FD00D729FD00D1124E3
:102A50007F01E91AF108E09EB001E19E700DF09E41
:102A6000700D1124672F7727E61BF70BE29F80017B
:102A7000E39F100DF29F100D1124E12F722F4230B1
:102A8000510599F048F44115510569F0413051055F
:102A900081F0EB2F8D2F07C04430510569F080F095
:102AA00046305105B1F76E2F8FCFE22F7B2F812F4C
:102AB000FACFE22F7D2FF7CFEB2F822F712FF3CF9D
:102AC0007B2F822FED2FEFCF41E00E94D11408958C
:102AD00008950E9464150895CF93DF93762FE9013E
:102AE000682F842F0E946915798368838A83DF9118
:102AF000CF9108958091F702982F9E7F29F48170DD
:102B000082608093F70208958635E8F381708465CA
:102B1000F8CFB0E0A0E0EFE8F5E10C94B52988E04B
:102B200090E00E949F2A6B017C0184E290E00E9469
:102B3000972A282F30E040E050E060E070E080E02D
:102B400090E000E20E94E229B22FA32FF42FE52F9C
:102B5000D62FC72F97018601BC29A12BFE295E2FF6
:102B6000532B2B2F3A2F4F2F6D2F7C2FCDB7DEB746
:102B7000E8E00C94D129B0E0A0E0E1ECF5E10C94A0
:102B8000B12949015A016B017C010E947A15840127
:102B9000A4016A2D7B2D88E090E00E94CD2A94014B
:102BA0004A2D5B2DB601C70100E20E94FD29622F6C
:102BB00084E290E00E94BB2ACDB7DEB7ECE00C9433
:102BC000CD29E7EFF2E083E0808311828FEF8283EB
:102BD00083831482758123E030E04FEF5FEF60E084
:102BE000868197810E94BB1508958091F70280FF2E
:102BF00002C08695089580E008959091FB0293307D
:102C000018F49F5F9093FB02882391F02091F702C4
:102C10003091F8024091F9025091FA026091FB0262
:102C20007091FC028091FD029091FE020E94BB1502
:102C3000089581E00E94FD1508959091FB0299236B
:102C400019F091509093FB02882391F02091F702A4
:102C50003091F8024091F9025091FA026091FB0222
:102C60007091FC028091FD029091FE020E94BB15C2
:102C7000089581E00E941D16089570E00E948B1E49
:102C80000895609112018091F70280FF0BC080913E
:102C9000110123E0829FC001112481509D4F0E94A9
:102CA0003D160895809113019091140123E0829FB5
:102CB000F0011124E150FD4F891748F7118210826D
:102CC00012828F5F3396F8CF9091F70290FF0EC07B
:102CD000909113012091140133E0939FF00111248E
:102CE000E150FD4F921718F00E944116089581831C
:102CF000608342839F5F3396F5CFA3E0B0E0E3E8C3
:102D0000F6E10C94BB299091F70290FF0AC09E0156
:102D10002F5F3F4F0E946C154B8169818A810E9411
:102D200064162396E2E00C94D729CF93DF93EC014D
:102D3000EC81F0E0EF5FFD4F4491E7EFF2E062815C
:102D400081810E947D168C818F5F8C83DF91CF9172
:102D50000895CF93DF93EC01E7EFF2E043816281C6
:102D60008C810E947D168C818F5F8C83DF91CF9147
:102D70000895A3E0B0E0EFEBF6E10C94B9298C01E3
:102D800080918B0281110AC09E012F5F3F4F4FEF50
:102D90006FEF0E946C158A8180938B02F801648129
:102DA000613069F080918B0240E0662361F040E081
:102DB000623011F440918B0280E060E004C06091C9
:102DC0008B0240E080E00E946416F801848190E06C
:102DD000019663E070E00E943E2984832396E4E03C
:102DE0000C94D529A3E0B0E0E8EFF6E10C94B42907
:102DF000082FD62EF42EC22E9091F70290FF2EC0EF
:102E0000E92FE695AE2FB0E0AF54BE4F8C91809382
:102E1000C9029E7F923031F59E012F5F3F4F802F78
:102E20000E946C154B8169818A810E94641600930F
:102E3000F802D092F902F092FA02CC2079F02091B7
:102E4000F7026091FB027091FC02302F4D2D5F2D37
:102E50008091FD029091FE020E94BB152396E9E04D
:102E60000C94D029823019F4F090FA02E0CF863029
:102E700019F40091F802DBCF8930D9F38931B9F622
:102E8000E9516E2F6170B62EE695F0E0EF5FFC4FD2
:102E90001491E12C60911501E61618F00E9441167C
:102EA000C6CFE19EC001112470E00E942A29802F24
:102EB000B11014C0860F20911301622F6E0D772779
:102EC000771F9B01220F331F260F371F21503D4FC5
:102ED0004F2D6D2D0E946C15E394DCCF861BEBCF3C
:102EE000E7EFF2E09181282F4381628188E0890F2A
:102EF0000E94F216089581E00E9470170895E7EF8E
:102F0000F2E09181282F4381628188EF890F0E942E
:102F1000F216089581E00E947F170895E7EFF2E02E
:102F2000628128E0620F08F46FEF282F43818181CE
:102F30000E94F216089581E00E948E170895E7EF2F
:102F4000F2E0628128E0621B08F460E0282F4381F0
:102F500081810E94F216089581E00E949F170895D2
:102F6000E7EFF2E0438128E0420F08F44FEF282F0B
:102F7000628181810E94F216089581E00E94B0175B
:102F80000895E7EFF2E0438128E0421B08F440E0B7
:102F9000282F628181810E94F216089581E00E94AB
:102FA000C117089520E00E94F2160895EF92FF9253
:102FB0001F93CF93DF93EC0110E0EE24EA94F12C01
:102FC00060911501161770F00E9441169A818C814C
:102FD00090FF27C08F5F8C83DF91CF911F91FF906F
:102FE000EF90089520911301422F410F5527551F4F
:102FF000CA019A01220F331F280F391F21503D4F5C
:1030000070E0C7010E943E29962F8C814091FA0200
:103010006091F902199F800D11240E946C151F5FA9
:10302000CFCF8150D8CFB0E0A0E0E9E1F8E10C9437
:10303000B329FC0182810FEF80FF01E010E04AE03C
:10304000A42E80911501181798F00E9441168091C6
:103050008D02013009F04FC0811102C0809115012D
:10306000815080938D02CDB7DEB7EAE00C94CF2972
:10307000C0911301C12ED12CCC0DDD2DD11DCE015F
:10308000880F991FC80FD91FC150DD4F19821882B0
:103090001A8234E0E32EF12CB12C80918D028B0D3D
:1030A0008B301CF16A2D0E941C29892F082E000CE0
:1030B000990BC816D90691F48091FA028E9DA00151
:1030C0008F9D500D112455954795559547959E0117
:1030D0006091F9028091F8020E946C15B00EF1E047
:1030E000EF1AF108D1F61F5FACCF87FFDFCF9091C9
:1030F0001501890FDBCF90E001966091150170E01A
:103100000E943E29AECF0F931F93CF93DF93809100
:1031100013019091140123E0829FF0011124E150EA
:10312000FD4F891740F1C0E0D3E060911501C6174B
:1031300040F10E94411620910F0180918C02820F74
:1031400080938C0290911001920F909310011916A8
:1031500054F4082E000C990B409115014150550B69
:10316000841795071CF0219520930F01DF91CF91D3
:103170001F910F9108951182108212828F5F3396F2
:10318000D0CF0C2F10E070E0C8010E943E292091A2
:103190001301820F482F50E020918C02022E000C68
:1031A000330B02171307BCF020911001022E000C04
:1031B000330B201731077CF08D9F90011124215093
:1031C0003D4F4091FA026091F9028091F8020E940D
:1031D0006C15CF5FAACFFA01EE0FFF1FE40FF51FAA
:1031E000E150FD4F118210821282F3CFB0E0A0E0D7
:1031F000ECEFF8E10C94B129EC014C81042F10E0C4
:103200009801D8010E9482299B01AC010E94982953
:103210004B015C01E0E2F0E0E01BF10BA5E5B0E062
:10322000AC019B010E9498296B017C019F01DF0189
:103230000E947A299B01AC010E94A3299B01AC0149
:10324000280D391D4A1D5B1DC701B6010E94522978
:10325000F22E822F90E039E23F1520F143E0249FC7
:103260009001112435952795122F109500E085E5E2
:10327000E82EEF1880911501081718F10E944116E9
:103280009C8181E0992319F0903219F48FEF80939B
:103290000E0180910E01890F8C83CDB7DEB7ECE073
:1032A0000C94CD2925E530E0B901681B790B9B0111
:1032B000220F331F260F371F37FFD4CF2F5F3F4F0B
:1032C000D1CF8E2D01FD8F2D20911301622F600F24
:1032D0007727771F9B01220F331F260F371F21509F
:1032E0003D4F412F6091F9020E946C150F5FC2CFD4
:1032F0000F931F93CF93DF93EC0110E000E09091C8
:1033000015019017110609F06CF40E9441168C818A
:1033100090E00196817099278C83DF91CF911F9166
:103320000F91089520911301A801420F511D9A0198
:10333000220F331F240F351F21503D4F4C816091C8
:10334000F9028091F80296959017110651F04CF011
:10335000442349F04091FA020E946C150F5F1F4F01
:10336000CECF4423B9F340E0F7CFB0E0A0E0EBEBE1
:10337000F9E10C94AD29FC016280448081E08483F2
:10338000E1E0F2E07490E0E8F2E0E491C091FA024A
:10339000C695C158D0E0CC0FDD1FCD2FDD27812C85
:1033A00075E0972EAA24AA94B12C55245A94E719B3
:1033B000EE2EF12C80911501881638F00E944116EE
:1033C000CDB7DEB7E0E10C94C929C82CD12C82E03E
:1033D000861568F09C9CF0019D9CF00D1124E2572D
:1033E000FD4F8091F80280838091F9028183411022
:1033F00023C09C9CF0019D9CF00D1124E257FD4FD1
:103400001382128220911301C601820F911D9C012B
:10341000220F331F280F391F21503D4F9C9CF00174
:103420009D9CF00D1124E257FD4F42816181808106
:103430000E946C158394BECF9C9C80019D9C100DB6
:10344000112402571D4FF80183818823F1F0815028
:103450008383859DC0011124648170E00E942A2924
:10346000FB01FF27EF5FFD4F8491E82FE719E59DF2
:10347000C0011124B7010E942A298091FA02689F95
:10348000B0011124F8017283BDCF0E94642AB501F6
:103490000E943E298C179D070CF0B4CFF2E0F61580
:1034A00098F40E94642AB5010E943E29F8018083A5
:1034B0000E94642A2091F9022695622F70E00E94F2
:1034C0003E29280FF80121839C9CF0019D9CF00D62
:1034D0001124E257FD4F12828091FA02893C58F084
:1034E00088EC9C9CF0019D9CF00D1124E257FD4F4F
:1034F0008483838387CF8431A0F784E1F2CFE7EF21
:10350000F2E020812E7F20833181428153816481CA
:103510007581868197810E94BB151092CA020E9414
:1035200041160895E7EFF2E080818E7F808310924C
:10353000CA020E94411608951092CA028091C702E1
:1035400081110AC081E08093C7028091F7028170E7
:103550008093C6020E94921A08956091F7026695C0
:1035600070E04BE050E086E191E00E94742A892BE4
:1035700019F481E08093CA020E9402229093C10252
:103580008093C00208959091F70290FF33C091702C
:10359000811131C092609093F702662391F02091DF
:1035A000F7023091F8024091F9025091FA026091CD
:1035B000FB027091FC028091FD029091FE020E943C
:1035C000BB156091F702669570E04BE050E086E134
:1035D00091E00E94742A892BA9F01092CA0281E01E
:1035E0008093C3024091FA026091F9028091F8023F
:1035F0000E94D21708958B3210F09465CCCF880FBB
:10360000982BC9CF0E94AD1AEACF682F9091F7028C
:10361000969581E0890F8B3208F081E00E94C31AF1
:10362000089581E00E94051B0895682F9091F7028C
:1036300096958FEF890F09F48AE20E94C31A0895C4
:1036400081E00E94151B089561E00E94C31A08954D
:10365000E7EFF2E080818160808386950E94241BE1
:1036600008958091F70280FF03C00E947F1A089599
:103670000E94281B089560E00E94C31A089580915B
:10368000C80281113EC00E94F40C811104C00E9446
:10369000920D0E94E1150E9489152093F702309344
:1036A000F8024093F9025093FA026093FB02709380
:1036B000FC028093FD029093FE022E7FA1F40E94F3
:1036C000E1150E9489152093F7023093F802409388
:1036D000F9025093FA026093FB027093FC0280930C
:1036E000FD029093FE020E947A151092CA02809108
:1036F000F70280FF03C086950E943B1B81E0809308
:10370000C8020895E7EFF2E08081816080838695AA
:103710000E943B1B08951092C7028091C60281113E
:103720000E94821B0E94AD1A08950F931F93CF939E
:10373000DF938091CA028823B9F18091C902E09198
:10374000F702E695E81BE093C202823091F5F0E0C3
:10375000E350FE4FE491CE2FD0E005E916E18091D1
:10376000C302882361F01092C3020E940222909348
:10377000C1028093C0021092C5021092C4020E943E
:103780000222E091C002F091C1028E1B9F0B8F3F7D
:103790009F4750F4EC0FFD1FF093C102E093C0026D
:1037A00080EC92E0F8010995DF91CF911F910F9184
:1037B0000895863049F4F0E0E650FE4FE491CE2FB4
:1037C000D0E009EA16E1CBCF893051F4E695F0E07C
:1037D000E950FE4FE491CE2FD0E006ED17E1BFCFC8
:1037E0008F3051F4E695F0E0EC50FE4FE491CE2F8F
:1037F000D0E003E118E1B3CF853149F4F0E0EF50B8
:10380000FE4FE491CE2FD0E003E818E1A8CFC8E244
:10381000D0E006EF18E1883109F4A1CF833239F402
:10382000EFEEF1E0C591D49109EB16E198CFC4EF2A
:10383000D1E008E719E1843209F491CFC0EDD7E077
:1038400008E615E1853209F08ACF8E2F63E00E94E9
:103850001029E92FF0E0E451FE4FE491CE2FD0E0A3
:1038600005EB19E17CCFFA01811101C0FB0109953B
:103870000895CF93DF93C82FD62F0E94F5158C178C
:1038800048F00E94F5158D1728F40E94111BDF9156
:10389000CF9108958C2F0E94241BF9CF1F93CF93B3
:1038A000DF93EC01FB011581111110C00E94F30B95
:1038B0008272FE01E052F847E531F10508F05EC082
:1038C000E45EF44D0C9474290E94311B812FDF912A
:1038D000CF911F91089540E25BE161E17BE10E949D
:1038E000331CF4CF41E15BE160E27BE1F8CF4AE8D1
:1038F00057E16BE777E1F3CF4BE757E16AE877E110
:10390000EECF4CEA57E16BE977E1E9CF4BE957E1BC
:103910006CEA77E1E4CF4EEC57E16DEB77E1DFCF76
:103920004DEB57E16EEC77E1DACF49E356E169E11F
:1039300076E1D5CF49E156E169E376E1D0CF81E088
:103940000E94241BC3CF65E082E00E94391CBECFD9
:1039500068E086E0FACF6EE089E0F7CF64E18FE0BF
:10396000F4CF67E185E1F1CF88E1EACF62E289E156
:10397000ECCF83E2E5CF6AE285E2E7CF11E0A6CFA4
:1039800086E090E00E94972A0895682F86E090E0F4
:103990000E94BB2A0895EDE1F3E08081847089677D
:1039A00080830E94C51C08950E94F40C811104C0FC
:1039B0000E94920D0E94CB1C0E94C01C80931D038C
:1039C00087FF04C08770886780931D0390911D0353
:1039D000892F817090FF04C0892F869586958695E2
:1039E0000E94D81D089580911D03982F9695969555
:1039F00096959F3040F49F5F990F990F990F8770AC
:103A0000892B80931D0380911D03816080931D038A
:103A10000E94C51C80911D038695869586950E94FF
:103A2000D81D089580911D03982F987F79F08850B4
:103A300080931D03887F91E009F490E080911D033D
:103A400090FB80F980931D030E94C51C80911D038B
:103A50008695869586950E94D81D089580911D03B0
:103A600080FD13C0816080931D03813019F489E0CB
:103A700080931D0380911D030E94C51C80911D032E
:103A80008695869586950E94D81D089580911D0380
:103A900080FF08C08E7F80931D030E94C51C80E0BC
:103AA0000E94D81D089580911D0380FF03C00E94CD
:103AB000461D08950E942E1D089590911D03892F83
:103AC0008695869586958F5F8F7197708031E0F42B
:103AD000880F880F880F892B80931D0380911D0309
:103AE000887F91E009F490E080911D0390FB80F9BC
:103AF00080931D030E94C51C80911D0386958695A9
:103B000086950E94D81D089590931D03E7CF8031BC
:103B100008F08FE090911D039770282F220F220F3D
:103B2000220F922B90931D03987F21E009F420E04F
:103B300090911D0320FB90F990931D030E94D81DC6
:103B400008950E94871D80911D030E94C51C089541
:103B50009C01FB018581882349F12230F8E73F076A
:103B6000F9F040F42115E8E73E0769F021303847C5
:103B700079F00895243098E7390779F058F0253026
:103B8000384789F008958FE00E94A11D80E00895D4
:103B900080E0FACF0E94121DF9CF0E94F31CF6CFED
:103BA0000E94531DF3CF0E945D1DF0CF81E0089568
:103BB0008F929F92AF92BF92EF92FF920F931F93BB
:103BC000CF93DF938031B0F5811135C090918000A3
:103BD0009F7D90938000A0918600B0918700282F50
:103BE00030E00E9482292FE030E040E050E00E9467
:103BF000522989019A0180918600909187006CE09A
:103C000070E00E942A2960177107C8F0C80169E0B6
:103C100070E00E942A2970938B0060938A00DF91E4
:103C2000CF911F910F91FF90EF90BF90AF909F9019
:103C30008F9008958FE0909180009062CACF80911C
:103C4000860090918700E0908600F0908700E091D8
:103C50008600F0918700C6E0D0E0BE010E942A29CC
:103C6000060F171F211D311D4801590185E0880CE1
:103C7000991CAA1CBB1C8A95D1F7C701BE010E94E2
:103C80002A299F0150E040E0260F371F411D511D9A
:103C9000C501B4010E94522949015A01E0918600F0
:103CA000F0918700CA01B9010E9400299B01AC0173
:103CB000DF010E9498299B01AC01C501B4010E945B
:103CC00000292FE096958795779567952A95D1F7E6
:103CD000009186001091870030E020E0061717075A
:103CE0002807390708F097CF609186007091870008
:103CF00092CF0895269A2E9882E28093800089E1DF
:103D0000809381008FEF9FEF9093870080938600D0
:103D10000E94D41C0895809A41B34E7F51B35160E4
:103D2000EFB7F8949B01220F331F260F371F280F80
:103D3000391F2817390741F4EFBF8FE594E0019749
:103D4000F1F700C000000895DC016D91CD0178E02D
:103D500051BB000000C067FF41BB660F000000C000
:103D600000C000C041BB00C07A9591F7E2CFCF936D
:103D7000DF93EC01FB018581882309F4D2C09E0109
:103D800030572332310508F0B2C00E94090D9093DC
:103D9000E2028093E102FE01E150F047E232F105D8
:103DA00020F4EF5CF44D0C9474298091E102816061
:103DB0008093E10293C08091E20288608093E202E6
:103DC0008DC08091E1028260F3CF8091E102846036
:103DD000EFCF8091E1028860EBCF8091E2028160B9
:103DE000EDCF8091E2028260E9CF8091E1028061B3
:103DF000DFCF8091E1028062DBCF8091E1028064BD
:103E0000D7CF0E9461078091E1028068D1CF809175
:103E1000E1028C60CDCF8091E2028360CFCF8091B0
:103E2000E1028E7FC5CF8091E202877FC7CF80916C
:103E3000E1028D7FBDCF8091E1028B7FB9CF809170
:103E4000E102877FB5CF8091E2028E7FB7CF80916C
:103E5000E2028D7FB3CF8091E1028F7EA9CF809166
:103E6000E1028F7DA5CF8091E1028F7BA1CF0E94DF
:103E700061078091E1028F779BCF8091E102837F80
:103E800097CF8091E2028C7F99CF8091E10282FBF3
:103E9000992790F921E0922790FB82F990FB83F912
:103EA00087CF8091E202982F909591708E7F892B19
:103EB00090FB81F983CF9091E102892F8F7B96FF50
:103EC000806476CF0E9461079091E102892F97FB71
:103ED00087F980586DCF81E00E94950D8091E102B5
:103EE0009091E2020E940E0D0E94610780E0DF9136
:103EF000CF91089580E0F0CF9091E102892F8F7EDD
:103F000094FF806155CF9091E102892F8E7F90FFC1
:103F100081604ECF9091E202892F877F93FF886066
:103F20004DCF81E0E4CFCF93DF93EB0186319C4707
:103F300011F50E94F30B9D81992399F08A7A91E003
:103F400009F490E09093CB02811109C089E20E94AC
:103F5000CB0B0E944C0C80E0DF91CF91089585E35C
:103F6000F6CF8091CB02811104C089E20E94D30B6D
:103F7000F0CF85E3FBCF81E0EFCF0F931F93CF937B
:103F8000DF93C42FD22FFC0185818823C9F0409391
:103F9000CE020E9402229093CD028093CC0280E256
:103FA0008C0F883040F4C77081E001C0880FCA953B
:103FB000EAF70E940D05DF91CF911F910F910895AF
:103FC0001091CE02141332C08091CC029091CD0298
:103FD0000E941A22883C910548F5C0E2CD0F1D17BA
:103FE000B9F080E2810F883040F4177081E001C0A1
:103FF000880F1A95EAF70E941405C83048F481E04A
:104000009D2F977001C0880F9A95EAF70E940D05C1
:10401000802F0E940405C83070F6D77081E001C07F
:10402000880FDA95EAF70E941405C5CF80E28C0F5D
:10403000883008F6C77081E001C0880FCA95EAF79A
:10404000F2CF0F93DB0188519C4787309105A0F593
:10405000FC01ED5AF44D0C94742906E221EE41EE78
:104060006AE17CE7CD010E94BD1F80E00F910895B9
:1040700007E225EE45EE6BE17CE7F4CF06E221EEA8
:1040800040EE68E17CE7EECF07E225EE44EE69E121
:104090007CE7E8CF06E221EE42EE6CE17CE7E2CF7E
:1040A00007E225EE46EE6DE17CE7DCCF08E221E099
:1040B00045EE6EE17CE7D6CF15968C91882319F0FA
:1040C0001092CE02D3CF81E0D1CF9093D4028093CF
:1040D000D3020895E091D302F091D402309729F0F1
:1040E0000190F081E02D0995089580E00895E09118
:1040F000D302F091D402309721F00280F381E02DB9
:1041000009950895E091D302F091D402309739F0E7
:1041100022E0DC012C930480F581E02D09950895BF
:10412000A3E0B0E0E6E9F0E20C94BB292091D102D3
:104130003091D20228173907A1F09093D2028093D0
:10414000D102E091D302F091D402309751F023E0F4
:1041500029839B838A830680F781E02DCE01019617
:1041600009952396E2E00C94D729A3E0B0E0EBEBAD
:10417000F0E20C94BB292091CF023091D002281795
:104180003907A1F09093D0028093CF02E091D3023F
:10419000F091D402309751F024E029839B838A83E5
:1041A0000680F781E02DCE01019609952396E2E085
:1041B0000C94D7299C012E5F3F4FAC01485F5F4FA5
:1041C00080E02417350709F40895F90191919F01C2
:1041D0009923B9F38F5FF5CF662349F0FC0132963E
:1041E00008962191261729F0E817F907D1F780E002
:1041F000089581E008959C01FC0132969FEF80E0D4
:104200004191461751F09F3F19F4411101C0982F79
:104210008F5F8630A9F79F3F09F40895290F311D5C
:1042200097FD3A95F90162830895FC01329608964C
:104230002191261303C0DF0111971C92E817F9079B
:10424000B9F708950E94FB2008950E941521089552
:10425000029626E0FC0111922A95E9F70895DC0107
:10426000FB0111969C9111978181981322C012969F
:104270008C911297882319F0928189131AC0139692
:104280008C911397882319F09381891312C0159686
:104290008C911597882319F0958189130AC014967B
:1042A0009C91992321F081E02481291303C080E0AF
:1042B00001C081E08170089508950E945C210895F5
:1042C000811106C081E08093D5020E945D2108958E
:1042D00082E0F9CF83E08093D5020E945D210895AA
:1042E0000E946021089581E08093D5020E945D21A3
:1042F00008950E9473210895089508950E947D21D4
:104300000895089508950E947C210895CF930E94F6
:1043100081210E94B2110E948221C0E08C2F0E9454
:10432000E710892B31F4CF5FC530C1F780E0CF9122
:10433000089581E0FCCF85B7806885BF85B7806828
:1043400085BF08951F921FB61F9211248F939F93CC
:10435000AF93BF938091D602811113C080911E0349
:1043600090911F03A0912003B09121034196A11DBC
:10437000B11D80931E0390931F03A0932003B0935D
:104380002103BF91AF919F918F911F901FBE1F90EE
:10439000189580912603843031F10E94D703109242
:1043A000D60288E190E020E40FB6F894A8958093B7
:1043B00060000FBE2093600083B7817F846083BF5D
:1043C00083B7816083BF7894889583B78E7F83BFDE
:1043D0000FB6F894A8958091600088618093600082
:1043E000109260000FBE08950E9461070E94E103D1
:1043F000089582E084BD93E095BD9AEF97BD8093C8
:104400006E0008952FB7F89480911E0390911F03BA
:10441000A0912003B09121032FBF08952FB7F894E6
:1044200060911E0370911F038091200390912103DE
:104430002FBF08959C014FB7F89480911E0390916F
:104440001F03A0912003B09121034FBF821B930B48
:10445000089578941F921FB61F9211248F939F93F3
:10446000AF93BF9380911E0390911F03A0912003EF
:10447000B09121030196A11DB11D80931E0390935D
:104480001F03A0932003B0932103BF91AF919F918D
:104490008F911F901FBE1F90189581E08093E000C0
:1044A00080E28093D8001092C9008FE19EE40197CA
:1044B000F1F700C0000087E090EBDC0180932F0350
:1044C00090933003A0933103B093320388E19CE0D2
:1044D0000FB6F894A895809360000FBE909360008B
:1044E000FFCF88E19CE00FB6F894A8958093600018
:1044F0000FBE90936000FFCF8091DF0208959B0173
:10450000BA01909126039430E9F48F708093E9000A
:104510009FEF8091E800915085FD06C085ED8A955A
:10452000F1F700009111F5CF8091E80085FF0AC0F6
:1045300050E040E0C9010E9479248091E8008E7724
:104540008093E800089543E050E0BC0182E00E94BF
:104550007F22089546E050E0BC0182E00E947F2265
:104560000895CF93DF93EC0148E050E0BC0181E077
:104570000E947F2288E0FE01A7EDB2E001900D923B
:104580008A95E1F7DF91CF910895809125038111FC
:1045900009C00E9409260E9466268091E20084607C
:1045A0008093E20008951092250308950E947321DC
:1045B00008956091220381E0611101C080E00E94B2
:1045C0006A2108959091260381E0943009F080E0FB
:1045D000609122030E947021089542E061EC81E025
:1045E0000E94852542E261EC82E00E94852590913F
:1045F000260381E0943009F080E0609122030E945C
:104600006021089580912803833009F461C030F45B
:104610008130D1F1823009F49EC008958A3009F4C6
:104620008AC08B3009F46FC0893009F050C0809186
:104630002703813209F04BC080912B0390912C030A
:10464000029708F044C08091E800877F8093E800DB
:104650008091E80082FF37C09091F3008091F200D2
:10466000029731F48091F100813011F0863021F40D
:104670008091F1008093DF028091E8008B77809336
:10468000E8000E94B92523C080912703813AF9F4FC
:104690008091E800877F8093E80080912B039091C0
:1046A0002C03892B61F468E087ED92E070E00E94B2
:1046B000C8248091E8008B778093E800089560E03B
:1046C00090E080E0F3CF809126038111C1CF08955F
:1046D00080912703813AD9F780912B0390912C0385
:1046E000892BA9F78091E800877F8093E80080916B
:1046F000E80080FFFCCF809129018093F100809138
:10470000E8008E77BCCF80912703813201F780913A
:104710002B0390912C03892BD1F68091E800877FA1
:104720008093E8000E94B925809129038093290194
:104730000E946107089580912703813241F680919C
:10474000E800877F8093E8000E94B92580912A03C2
:104750008093E002089580912703813A09F0B7CF52
:104760008091E800877F8093E8008091E80080FFD7
:10477000FCCF8091E002C1CF84B7877F84BF0FB6A2
:10478000F894A895809160008861809360001092F1
:1047900060000FBE80E890E00FB6F894809361004F
:1047A000909361000FBE0E94792108950E9409260E
:1047B0000E946626E2EEF0E0808184608083789437
:1047C0000E94E528089581E291E00E946520089505
:1047D00080912603853031F480912603853019F0CD
:1047E0000E94F42108950E94C92180912403882306
:1047F00099F30E948621882379F30E9463240E9402
:104800006107EACF08959A0140912D0350912E033C
:104810000E940B240895492F55274330510519F163
:1048200068F44130510509F444C04230510509F49F
:1048300045C090E080E050E040E025C041325105A5
:1048400049F142325105A9F784E490E04AEF54E07F
:1048500061157105C1F08BE790E04FE754E06130DE
:10486000710589F0E6CF99278130910581F0009795
:1048700029F00297F1F6E6E0F4E002C0EEE2F4E09F
:10488000849190E0AF01F901518340830895ECE1F8
:10489000F4E0F6CF89E090E044E454E0611571055E
:1048A00091F389E090E04DE554E06130710559F3F2
:1048B000C0CF82E190E04DE654E0E5CF8BE390E09D
:1048C00042E354E0E0CF80E189BD82E189BD09B4D3
:1048D00000FEFDCF8091D8008F7D8093D80080911D
:1048E000E00082608093E0008091E00081FDFCCFD9
:1048F0000895AF92BF92CF92DF92FF920F931F93D2
:10490000CF93DF936C01EB018A010E94D825F82E2A
:10491000811123C00115110539F0F80180819181C1
:10492000C81BD90BC80ED91EB12CA12C2097A9F0F9
:104930008091E80085FD22C08091E8008E77809309
:10494000E80001151105A1F0F80180819181A80E00
:10495000B91EB182A08285E0F82E8F2DDF91CF9114
:104960001F910F91FF90DF90CF90BF90AF9008956F
:104970000E94D8258823D1F2F82EEFCFF60181913D
:104980006F018093F1002197FFEFAF1ABF0ACECFDE
:10499000FC0180912D0390912E0386179707A0F0BC
:1049A0006115710529F49091E8009E779093E800D5
:1049B00090E06115710551F4911108C08091E800F3
:1049C00082FF34C080E00895BC01F2CF80912603BD
:1049D0008823C1F18530C1F18091E80083FD30C0AA
:1049E0008091E80082FDEACF8091E80080FFE1CF6E
:1049F0008091F3002091F200382F6115710519F0B4
:104A00002830310558F091E02830310509F090E068
:104A10002091E8002E772093E800CBCF81918093FE
:104A2000F100615071092F5F3F4FE7CF809126035E
:104A3000882341F0853041F08091E80083FFBECFAC
:104A400081E0089582E0089583E00895FC0180915B
:104A50002D0390912E0386179707A0F0611571051D
:104A600029F48091E8008E778093E80090E061154A
:104A7000710551F4911108C08091E80082FF35C0A2
:104A800080E00895BC01F2CF809126038823C9F10C
:104A90008530C9F18091E80083FD31C08091E80044
:104AA00082FDEACF8091E80080FFE1CF8091F300A2
:104AB0002091F200382F6115710519F02830310569
:104AC00058F091E02830310509F090E08091E8003D
:104AD0008E778093E800CBCF84918093F10031965C
:104AE000615071092F5F3F4FE6CF809126038823E5
:104AF00041F0853041F08091E80083FFBDCF81E037
:104B0000089582E0089583E00895982F973028F063
:104B10008F708093E90081E008959093E900242F3D
:104B2000762F50E0981731F07091EC002091ED0055
:104B30005091F00021FD02C09F5FE8CF3091EB0063
:104B40003E7F3093EB003091ED003D7F3093ED00E0
:104B50003091EB0031603093EB007093EC002093C8
:104B6000ED005093F0002091EE0027FDE5CF80E0AE
:104B700008958091270387FF13C08091E80082FF8A
:104B800006C08091E8008B778093E80004C0809194
:104B900026038111F2CF0895809126038823D9F34B
:104BA0008091E80080FFF8CF8091E8008E77ECCF0D
:104BB0002091E4003091E50095E6A9012091EC00F8
:104BC000822F817020FF06C08091E80080FF06C020
:104BD00080E008952091E80022FD1AC0809126030C
:104BE000882389F0853089F08091EB0085FD0FC026
:104BF0002091E4003091E50042175307F9F29150FB
:104C0000E1F684E0089582E0089583E0089581E06C
:104C100008950E9478260E948026E0EEF0E08081D0
:104C200081608083E8EDF0E080818F77808319BC1C
:104C3000A7EDB0E08C918E7F8C9380818F7E8083F6
:104C40001092250308950F931F93CF93DF930E9433
:104C500078260E948026C8EDD0E088818F778883EF
:104C600088818068888388818F7D888319BC1092B1
:104C7000260310922203109224031092230300EEC5
:104C800010E0F80180818B7F808388818160888338
:104C900042E060E080E00E948525E1EEF0E0808166
:104CA0008E7F8083E2EEF0E080818160808380816E
:104CB00088608083F80180818E7F80838881806115
:104CC0008883DF91CF911F910F910895E8EDF0E077
:104CD00080818F7E8083E7EDF0E08081816080833A
:104CE00084E082BF81E0809325030E9423260895FB
:104CF000E8EDF0E080818E7F80831092E2000895DD
:104D00001092DA001092E10008951F920F920FB6F0
:104D10000F9211242F933F934F935F936F937F9341
:104D20008F939F93AF93BF93EF93FF938091E10095
:104D300082FF0BC08091E20082FF07C08091E100FA
:104D40008B7F8093E1000E94E4288091DA0080FF4D
:104D500019C08091D80080FF15C08091DA008E7F45
:104D60008093DA008091D90080FF96C080E189BDF0
:104D700082E189BD09B400FEFDCF81E08093260366
:104D80000E94C5228091E10080FF19C08091E2005D
:104D900080FF15C08091E2008E7F8093E2008091B9
:104DA000E20080618093E2008091D800806280936D
:104DB000D80019BC85E0809326030E94D9228091F7
:104DC000E10084FF2BC08091E20084FF27C080E1D6
:104DD00089BD82E189BD89B5982F917080FFFBCF95
:104DE0008091D8008F7D8093D8008091E1008F7EE4
:104DF0008093E1008091E2008F7E8093E2008091B9
:104E0000E20081608093E20080912203882309F40C
:104E100049C084E0809326030E94E2228091E10051
:104E200083FF29C08091E20083FF25C08091E100CB
:104E3000877F8093E10082E0809326031092220313
:104E40008091E1008E7F8093E1008091E2008E7F6F
:104E50008093E2008091E20080618093E20042E072
:104E600060E080E00E9485258091F000886080935A
:104E7000F0000E94D622FF91EF91BF91AF919F91D8
:104E80008F917F916F915F914F913F912F910F90F3
:104E90000FBE0F901F90189519BC109226030E9408
:104EA000D32270CF8091E30087FD93E09093260397
:104EB000B3CF1F920F920FB60F9211242F933F93EF
:104EC0004F935F936F937F938F939F93AF93BF9312
:104ED000CF93DF93EF93FF93D091E900DF70809140
:104EE000EC00C82FC17080FDC0E81092E9008091ED
:104EF000F000877F8093F00078940E949D271092A5
:104F0000E9008091F00088608093F000CD2BCF7095
:104F1000C093E900FF91EF91DF91CF91BF91AF91E5
:104F20009F918F917F916F915F914F913F912F91C1
:104F30000F900FBE0F901F901895AAE2B0E0E3EA21
:104F4000F7E20C94BA2987E293E02091F100FC018A
:104F50002193CF01F3E08F329F07B9F70E9402231C
:104F60008091E80083FF1EC1809127039091280360
:104F70009A3008F017C1E92FF0E0E65AF44D0C948E
:104F80007429803899F0823809F00CC180912B0384
:104F90008F70873008F006C18093E9008091EB00A4
:104FA00085FB882780F91092E90006C080912303D1
:104FB00090912403911182609091E800977F9093E3
:104FC000E8008093F1001092F1008091E8008E7764
:104FD000E5C0882309F4D3C0823009F0E3C0809192
:104FE00029038111D6C080912B038F702FEF280FDA
:104FF000263008F0D7C08093E9002091EB0020FF15
:10500000C8C0933031F48091EB0080628093EB0054
:10501000C0C09091EB0090619093EB0021E030E0F4
:1050200001C0220F8A95EAF72093EA001092EA0065
:105030008091EB008860EACF8111B4C01091290300
:105040001F778091E3008078812B8093E30080912B
:10505000E800877F8093E8000E94B9258091E800EE
:1050600080FFFCCF8091E30080688093E30082E0C2
:10507000111183E08093260395C08058823008F098
:1050800091C08091290390912A038C3D23E09207DF
:10509000A1F583E08A838AE289834FB7F894DE0121
:1050A000139620E03EE051E2E32FF0E050935700EA
:1050B000E49120FF03C0E295EF703F5FEF708E2F09
:1050C00090E0EA30C0F0C7968D939D932F5F243116
:1050D00059F74FBF8091E800877F8093E8006AE22C
:1050E00070E0CE0101960E94C8248091E8008B7781
:1050F0008093E80057C0C096E7CF60912B03709172
:105100002C03AE014F5F5F4F0E940324BC01892B2B
:1051100009F448C09091E800977F9093E800898156
:105120009A810E942625E1CF8038E1F58091E80040
:10513000877F8093E800809122038093F10045CF20
:10514000811130C090912903923060F58091E80080
:10515000877F8093E800909322030E94B925809175
:105160002203882311F084E005C08091E30087FDCD
:10517000FACF81E0809326030E94ED2213C0809134
:105180002903813079F481E0933009F080E0809345
:1051900024031092E9008091E800877F8093E80063
:1051A0000E94B9258091E80083FF0AC08091E80041
:1051B000877F8093E8008091EB0080628093EB0012
:1051C000AA96E3E00C94D6290895CF938091260304
:1051D0008823A1F0C091E900CF709091EC00892F55
:1051E000817090FD80E8C82B1092E9008091E80062
:1051F00083FD0E949D27CF70C093E900CF91089551
:10520000DB018F939F930E949829BF91AF91A29F3A
:10521000800D911DA39F900DB29F900D11240895B4
:10522000991B79E004C0991F961708F0961B881FF8
:105230007A95C9F78095089587FB082E062687FD85
:10524000819567FD61950E9410290EF4919507FCE8
:1052500081950895AA1BBB1B51E107C0AA1FBB1F64
:10526000A617B70710F0A61BB70B881F991F5A95F2
:10527000A9F780959095BC01CD01089597FB072E65
:1052800016F4009407D077FD09D00E942A2907FC64
:1052900005D03EF4909581959F4F08957095619546
:1052A0007F4F0895A1E21A2EAA1BBB1BFD010DC062
:1052B000AA1FBB1FEE1FFF1FA217B307E407F507C6
:1052C00020F0A21BB30BE40BF50B661F771F881FA2
:1052D000991F1A9469F760957095809590959B0138
:1052E000AC01BD01CF010895EE0FFF1F0590F491B1
:1052F000E02D09940E948229332312F48A1B9B0B10
:105300000C949329A29FB001B39FC001A39F700D7D
:10531000811D1124911DB29F700D811D1124911DBD
:1053200008950E948229B7FF0895821B930B089568
:105330000E948229A59F900DB49F900DA49F800D7F
:10534000911D11240895B7FF0C9498290E94982963
:10535000821B930B08952F923F924F925F926F9210
:105360007F928F929F92AF92BF92CF92DF92EF92F5
:10537000FF920F931F93CF93DF93CDB7DEB7CA1B76
:10538000DB0B0FB6F894DEBF0FBECDBF09942A88A1
:10539000398848885F846E847D848C849B84AA8449
:1053A000B984C884DF80EE80FD800C811B81AA81D6
:1053B000B981CE0FD11D0FB6F894DEBF0FBECDBFA1
:1053C000ED010895002E083090F0982F872F762F4A
:1053D000652F542F432F322F22270850F4CF220F4E
:1053E000331F441F551F661F771F881F991F0A957B
:1053F000B2F7002D089597FD1094002E083098F014
:105400000850232F342F452F562F672F782F892FA1
:10541000912DF4CF15949795879577956795579526
:105420004795379527950A95AAF71124002D0895D9
:105430008F929F92AF92BF92CF92DF92EF92FF92A4
:10544000CF93DF93EC01688179818A819B8161151B
:1054500071058105910521F464E279ED8BE597E012
:105460002DE133EF41E050E00E94EF2A49015A015B
:105470009B01AC01A7EAB1E40E9498296B017C0171
:10548000ACEEB4EFA50194010E94A629DC01CB018A
:105490008C0D9D1DAE1DBF1DB7FF03C00197A10957
:1054A000B04888839983AA83BB839F77DF91CF918C
:1054B000FF90EF90DF90CF90BF90AF909F908F9034
:1054C00008950E94182A089580E091E00E94182A09
:1054D0000895B0E0A0E08093000190930101A093B3
:1054E0000201B09303010895FC014150504030F097
:1054F00001900616D1F73197CF0108958827992793
:105500000895FB01DC0104C08D910190801921F404
:1055100041505040C8F7881B990B0895FB01DC01EE
:1055200002C001900D9241505040D8F70895F9996A
:10553000FECF92BD81BDF89A992780B50895A6E166
:10554000B0E044E050E00C94E12AA8E1B0E042E091
:1055500050E00C94E12ADC01A40FB51F41505040EB
:1055600048F0CB01840F951F2E910E94BC2A415018
:105570005040D0F70895262FF999FECF92BD81BDF6
:10558000F89A019700B4021639F01FBA20BD0FB681
:10559000F894FA9AF99A0FBE08950396272F0E945D
:1055A000BC2A0E94BB2A252F0E94BC2A242F0C94BF
:1055B000BC2A0196272F0E94BC2A0C94BB2ADC012E
:1055C000CB01FC01F999FECF06C0F2BDE1BDF89A0E
:1055D000319600B40D9241505040B8F70895052E11
:1055E00097FB1EF400940E94062B57FD07D00E94E3
:1055F000522907FC03D04EF40C94062B509540958D
:10560000309521953F4F4F4F5F4F0895909580956E
:10561000709561957F4F8F4F9F4F0895F894FFCFFE
:105620005A055A05AA05AA050F062B0689058905FC
:105630003006A106B006B006641C6B1C721C771CF9
:105640007C1C811C861C8B1C901C951C9A1C9F1C0E
:10565000A31CA81CAB1CAE1CB11CB41CB61CB91CF2
:10566000BB1C0F1F831F171FE11EE51E1B1FE91E1A
:105670001F1F2B1FF51E7C1FF91E2F1FFD1E331F22
:105680005B1F011F371F621F071F3D1F451FED1EB8
:10569000231FF11E271F0B1F411F511F6B1F7A1F56
:1056A000DB1E131F8A1F3E2044202D2038204A2055
:1056B00050205620C127E927D228E927D2281C28C4
:0856C0003D28D2289428A028FF
:1056C800010000005C02280850011E0A14010101B3
:1056D80002000A000A0A01191A1B1C1D1E1F20219C
:1056E800227C22B122AA22A32201E200E900EA00D8
:1056F800B500B600B700CD008301CC008A01920145
:1057080094012102230224022502260227022A02EA
:10571800B300B4006F0070009F01CB019F02A0028C
:10572800818283E200E900EA00B500B600B700CD47
:10573800008301CC008A01920194012102230224F2
:10574800022502260227022A02B300B4006F007065
:10575800009F01CB019F02A00281828367F6F5F4C6
:10576800F1C69091929394959697343530313233AF
:10577800F7000102020202060606090909090909D9
:105788000F0F0F0F0F0F15151518191919191919CA
:0C5798001919191923242525252525257C
:00000001FF
